{
  "_format": "hh-sol-artifact-1",
  "contractName": "EthSwap",
  "sourceName": "contracts/EthSwap.sol",
  "abi": [
    {
      "inputs": [
        {
          "internalType": "contract Token",
          "name": "_token",
          "type": "address"
        },
        {
          "internalType": "contract BroToken",
          "name": "_broToken",
          "type": "address"
        }
      ],
      "stateMutability": "nonpayable",
      "type": "constructor"
    },
    {
      "anonymous": false,
      "inputs": [
        {
          "indexed": false,
          "internalType": "address",
          "name": "account",
          "type": "address"
        },
        {
          "indexed": false,
          "internalType": "address",
          "name": "token",
          "type": "address"
        },
        {
          "indexed": false,
          "internalType": "uint256",
          "name": "amount",
          "type": "uint256"
        },
        {
          "indexed": false,
          "internalType": "uint256",
          "name": "rate",
          "type": "uint256"
        }
      ],
      "name": "TokensPurchased",
      "type": "event"
    },
    {
      "anonymous": false,
      "inputs": [
        {
          "indexed": false,
          "internalType": "address",
          "name": "account",
          "type": "address"
        },
        {
          "indexed": false,
          "internalType": "address",
          "name": "token",
          "type": "address"
        },
        {
          "indexed": false,
          "internalType": "uint256",
          "name": "amount",
          "type": "uint256"
        },
        {
          "indexed": false,
          "internalType": "uint256",
          "name": "rate",
          "type": "uint256"
        }
      ],
      "name": "TokensSold",
      "type": "event"
    },
    {
      "inputs": [
        {
          "internalType": "address",
          "name": "",
          "type": "address"
        }
      ],
      "name": "accountTransactionCount",
      "outputs": [
        {
          "internalType": "uint256",
          "name": "",
          "type": "uint256"
        }
      ],
      "stateMutability": "view",
      "type": "function"
    },
    {
      "inputs": [],
      "name": "broToken",
      "outputs": [
        {
          "internalType": "contract BroToken",
          "name": "",
          "type": "address"
        }
      ],
      "stateMutability": "view",
      "type": "function"
    },
    {
      "inputs": [],
      "name": "broTokenRate",
      "outputs": [
        {
          "internalType": "uint256",
          "name": "",
          "type": "uint256"
        }
      ],
      "stateMutability": "view",
      "type": "function"
    },
    {
      "inputs": [
        {
          "internalType": "string",
          "name": "nameToken",
          "type": "string"
        }
      ],
      "name": "buyTokens",
      "outputs": [],
      "stateMutability": "payable",
      "type": "function"
    },
    {
      "inputs": [],
      "name": "name",
      "outputs": [
        {
          "internalType": "string",
          "name": "",
          "type": "string"
        }
      ],
      "stateMutability": "view",
      "type": "function"
    },
    {
      "inputs": [
        {
          "internalType": "uint256",
          "name": "_amount",
          "type": "uint256"
        },
        {
          "internalType": "string",
          "name": "nameToken",
          "type": "string"
        }
      ],
      "name": "sellTokens",
      "outputs": [],
      "stateMutability": "nonpayable",
      "type": "function"
    },
    {
      "inputs": [],
      "name": "token",
      "outputs": [
        {
          "internalType": "contract Token",
          "name": "",
          "type": "address"
        }
      ],
      "stateMutability": "view",
      "type": "function"
    },
    {
      "inputs": [],
      "name": "tokenRate",
      "outputs": [
        {
          "internalType": "uint256",
          "name": "",
          "type": "uint256"
        }
      ],
      "stateMutability": "view",
      "type": "function"
    },
    {
      "inputs": [],
      "name": "transactionCount",
      "outputs": [
        {
          "internalType": "uint256",
          "name": "",
          "type": "uint256"
        }
      ],
      "stateMutability": "view",
      "type": "function"
    },
    {
      "inputs": [
        {
          "internalType": "uint256",
          "name": "",
          "type": "uint256"
        }
      ],
      "name": "transactionToAccount",
      "outputs": [
        {
          "internalType": "address",
          "name": "",
          "type": "address"
        }
      ],
      "stateMutability": "view",
      "type": "function"
    },
    {
      "inputs": [
        {
          "internalType": "uint256",
          "name": "",
          "type": "uint256"
        }
      ],
      "name": "transactions",
      "outputs": [
        {
          "internalType": "uint256",
          "name": "id",
          "type": "uint256"
        },
        {
          "internalType": "string",
          "name": "tokenBuyName",
          "type": "string"
        },
        {
          "internalType": "uint256",
          "name": "tokenBuyAmount",
          "type": "uint256"
        },
        {
          "internalType": "string",
          "name": "tokenSoldName",
          "type": "string"
        },
        {
          "internalType": "uint256",
          "name": "tokenSoldAmount",
          "type": "uint256"
        },
        {
          "internalType": "uint256",
          "name": "timestamps",
          "type": "uint256"
        }
      ],
      "stateMutability": "view",
      "type": "function"
    }
  ],
  "bytecode": "0x60806040526040518060400160405280601881526020017f4574685377617020496e7374616e742045786368616e6765000000000000000081525060009080519060200190620000519291906200013a565b50606460035561271060045560006008553480156200006f57600080fd5b506040516200209038038062002090833981810160405260408110156200009557600080fd5b81019080805190602001909291908051906020019092919050505081600160006101000a81548173ffffffffffffffffffffffffffffffffffffffff021916908373ffffffffffffffffffffffffffffffffffffffff16021790555080600260006101000a81548173ffffffffffffffffffffffffffffffffffffffff021916908373ffffffffffffffffffffffffffffffffffffffff1602179055505050620001e0565b828054600181600116156101000203166002900490600052602060002090601f016020900481019282601f106200017d57805160ff1916838001178555620001ae565b82800160010185558215620001ae579182015b82811115620001ad57825182559160200191906001019062000190565b5b509050620001bd9190620001c1565b5090565b5b80821115620001dc576000816000905550600101620001c2565b5090565b611ea080620001f06000396000f3fe60806040526004361061009c5760003560e01c8063710d8f6511610064578063710d8f65146102bd5780639ace38c2146102e8578063b756ad7814610424578063b77bf600146104f6578063b7f0659014610521578063fc0c546a146105865761009c565b806306fdde03146100a15780632b8d5fc11461013157806331711884146101725780633b652f871461019d5780636f85e62c14610202575b600080fd5b3480156100ad57600080fd5b506100b66105c7565b6040518080602001828103825283818151815260200191508051906020019080838360005b838110156100f65780820151818401526020810190506100db565b50505050905090810190601f1680156101235780820380516001836020036101000a031916815260200191505b509250505060405180910390f35b34801561013d57600080fd5b50610146610665565b604051808273ffffffffffffffffffffffffffffffffffffffff16815260200191505060405180910390f35b34801561017e57600080fd5b5061018761068b565b6040518082815260200191505060405180910390f35b3480156101a957600080fd5b506101d6600480360360208110156101c057600080fd5b8101908080359060200190929190505050610691565b604051808273ffffffffffffffffffffffffffffffffffffffff16815260200191505060405180910390f35b6102bb6004803603602081101561021857600080fd5b810190808035906020019064010000000081111561023557600080fd5b82018360208201111561024757600080fd5b8035906020019184600183028401116401000000008311171561026957600080fd5b91908080601f016020809104026020016040519081016040528093929190818152602001838380828437600081840152601f19601f8201169050808301925050505050505091929192905050506106c4565b005b3480156102c957600080fd5b506102d2610f82565b6040518082815260200191505060405180910390f35b3480156102f457600080fd5b506103216004803603602081101561030b57600080fd5b8101908080359060200190929190505050610f88565b604051808781526020018060200186815260200180602001858152602001848152602001838103835288818151815260200191508051906020019080838360005b8381101561037d578082015181840152602081019050610362565b50505050905090810190601f1680156103aa5780820380516001836020036101000a031916815260200191505b50838103825286818151815260200191508051906020019080838360005b838110156103e35780820151818401526020810190506103c8565b50505050905090810190601f1680156104105780820380516001836020036101000a031916815260200191505b509850505050505050505060405180910390f35b34801561043057600080fd5b506104f46004803603604081101561044757600080fd5b81019080803590602001909291908035906020019064010000000081111561046e57600080fd5b82018360208201111561048057600080fd5b803590602001918460018302840111640100000000831117156104a257600080fd5b91908080601f016020809104026020016040519081016040528093929190818152602001838380828437600081840152601f19601f8201169050808301925050505050505091929192905050506110f4565b005b34801561050257600080fd5b5061050b611b1a565b6040518082815260200191505060405180910390f35b34801561052d57600080fd5b506105706004803603602081101561054457600080fd5b81019080803573ffffffffffffffffffffffffffffffffffffffff169060200190929190505050611b20565b6040518082815260200191505060405180910390f35b34801561059257600080fd5b5061059b611b38565b604051808273ffffffffffffffffffffffffffffffffffffffff16815260200191505060405180910390f35b60008054600181600116156101000203166002900480601f01602080910402602001604051908101604052809291908181526020018280546001816001161561010002031660029004801561065d5780601f106106325761010080835404028352916020019161065d565b820191906000526020600020905b81548152906001019060200180831161064057829003601f168201915b505050505081565b600260009054906101000a900473ffffffffffffffffffffffffffffffffffffffff1681565b60035481565b60066020528060005260406000206000915054906101000a900473ffffffffffffffffffffffffffffffffffffffff1681565b6106cd81611b5e565b6106d633611c5c565b6106df34611d0b565b6000806000600160009054906101000a900473ffffffffffffffffffffffffffffffffffffffff1673ffffffffffffffffffffffffffffffffffffffff166306fdde036040518163ffffffff1660e01b815260040160006040518083038186803b15801561074c57600080fd5b505afa158015610760573d6000803e3d6000fd5b505050506040513d6000823e3d601f19601f82011682018060405250602081101561078a57600080fd5b81019080805160405193929190846401000000008211156107aa57600080fd5b838201915060208201858111156107c057600080fd5b82518660018202830111640100000000821117156107dd57600080fd5b8083526020830192505050908051906020019080838360005b838110156108115780820151818401526020810190506107f6565b50505050905090810190601f16801561083e5780820380516001836020036101000a031916815260200191505b506040525050506040516020018082805190602001908083835b6020831061087b5780518252602082019150602081019050602083039250610858565b6001836020036101000a03801982511681845116808217855250505050505090500191505060405160208183030381529060405280519060200120846040516020018082805190602001908083835b602083106108ed57805182526020820191506020810190506020830392506108ca565b6001836020036101000a038019825116818451168082178552505050505050905001915050604051602081830303815290604052805190602001201415610bb557600354670de0b6b3a7640000348161094257fe5b04029050670de0b6b3a7640000348161095757fe5b049250670de0b6b3a764000060035434028161096f57fe5b04915080600160009054906101000a900473ffffffffffffffffffffffffffffffffffffffff1673ffffffffffffffffffffffffffffffffffffffff166370a08231306040518263ffffffff1660e01b8152600401808273ffffffffffffffffffffffffffffffffffffffff16815260200191505060206040518083038186803b1580156109fc57600080fd5b505afa158015610a10573d6000803e3d6000fd5b505050506040513d6020811015610a2657600080fd5b81019080805190602001909291905050501015610a4257600080fd5b600160009054906101000a900473ffffffffffffffffffffffffffffffffffffffff1673ffffffffffffffffffffffffffffffffffffffff1663a9059cbb33836040518363ffffffff1660e01b8152600401808373ffffffffffffffffffffffffffffffffffffffff16815260200182815260200192505050602060405180830381600087803b158015610ad557600080fd5b505af1158015610ae9573d6000803e3d6000fd5b505050506040513d6020811015610aff57600080fd5b8101908080519060200190929190505050507f6faf93231a456e552dbc9961f58d9713ee4f2e69d15f1975b050ef0911053a7b33600160009054906101000a900473ffffffffffffffffffffffffffffffffffffffff1683600354604051808573ffffffffffffffffffffffffffffffffffffffff1681526020018473ffffffffffffffffffffffffffffffffffffffff16815260200183815260200182815260200194505050505060405180910390a1610e38565b600454670de0b6b3a76400003481610bc957fe5b04029050670de0b6b3a76400003481610bde57fe5b049250670de0b6b3a7640000600454340281610bf657fe5b04915080600260009054906101000a900473ffffffffffffffffffffffffffffffffffffffff1673ffffffffffffffffffffffffffffffffffffffff166370a08231306040518263ffffffff1660e01b8152600401808273ffffffffffffffffffffffffffffffffffffffff16815260200191505060206040518083038186803b158015610c8357600080fd5b505afa158015610c97573d6000803e3d6000fd5b505050506040513d6020811015610cad57600080fd5b81019080805190602001909291905050501015610cc957600080fd5b600260009054906101000a900473ffffffffffffffffffffffffffffffffffffffff1673ffffffffffffffffffffffffffffffffffffffff1663a9059cbb33836040518363ffffffff1660e01b8152600401808373ffffffffffffffffffffffffffffffffffffffff16815260200182815260200192505050602060405180830381600087803b158015610d5c57600080fd5b505af1158015610d70573d6000803e3d6000fd5b505050506040513d6020811015610d8657600080fd5b8101908080519060200190929190505050507f6faf93231a456e552dbc9961f58d9713ee4f2e69d15f1975b050ef0911053a7b33600260009054906101000a900473ffffffffffffffffffffffffffffffffffffffff1683600454604051808573ffffffffffffffffffffffffffffffffffffffff1681526020018473ffffffffffffffffffffffffffffffffffffffff16815260200183815260200182815260200194505050505060405180910390a15b6008600081548092919060010191905055506040518060c0016040528060085481526020018581526020018381526020016040518060400160405280600381526020017f4554480000000000000000000000000000000000000000000000000000000000815250815260200184815260200142815250600560006008548152602001908152602001600020600082015181600001556020820151816001019080519060200190610ee9929190611dcd565b50604082015181600201556060820151816003019080519060200190610f10929190611dcd565b506080820151816004015560a082015181600501559050503360066000600854815260200190815260200160002060006101000a81548173ffffffffffffffffffffffffffffffffffffffff021916908373ffffffffffffffffffffffffffffffffffffffff16021790555050505050565b60045481565b6005602052806000526040600020600091509050806000015490806001018054600181600116156101000203166002900480601f01602080910402602001604051908101604052809291908181526020018280546001816001161561010002031660029004801561103a5780601f1061100f5761010080835404028352916020019161103a565b820191906000526020600020905b81548152906001019060200180831161101d57829003601f168201915b505050505090806002015490806003018054600181600116156101000203166002900480601f0160208091040260200160405190810160405280929190818152602001828054600181600116156101000203166002900480156110de5780601f106110b3576101008083540402835291602001916110de565b820191906000526020600020905b8154815290600101906020018083116110c157829003601f168201915b5050505050908060040154908060050154905086565b60008060006111c5600160009054906101000a900473ffffffffffffffffffffffffffffffffffffffff1673ffffffffffffffffffffffffffffffffffffffff166370a08231336040518263ffffffff1660e01b8152600401808273ffffffffffffffffffffffffffffffffffffffff16815260200191505060206040518083038186803b15801561118557600080fd5b505afa158015611199573d6000803e3d6000fd5b505050506040513d60208110156111af57600080fd5b8101908080519060200190929190505050611d0b565b6111ce85611d0b565b600160009054906101000a900473ffffffffffffffffffffffffffffffffffffffff1673ffffffffffffffffffffffffffffffffffffffff166306fdde036040518163ffffffff1660e01b815260040160006040518083038186803b15801561123657600080fd5b505afa15801561124a573d6000803e3d6000fd5b505050506040513d6000823e3d601f19601f82011682018060405250602081101561127457600080fd5b810190808051604051939291908464010000000082111561129457600080fd5b838201915060208201858111156112aa57600080fd5b82518660018202830111640100000000821117156112c757600080fd5b8083526020830192505050908051906020019080838360005b838110156112fb5780820151818401526020810190506112e0565b50505050905090810190601f1680156113285780820380516001836020036101000a031916815260200191505b506040525050506040516020018082805190602001908083835b602083106113655780518252602082019150602081019050602083039250611342565b6001836020036101000a03801982511681845116808217855250505050505090500191505060405160208183030381529060405280519060200120846040516020018082805190602001908083835b602083106113d757805182526020820191506020810190506020830392506113b4565b6001836020036101000a0380198251168184511680821785525050505050509050019150506040516020818303038152906040528051906020012014156116fc5784600160009054906101000a900473ffffffffffffffffffffffffffffffffffffffff1673ffffffffffffffffffffffffffffffffffffffff166370a08231336040518263ffffffff1660e01b8152600401808273ffffffffffffffffffffffffffffffffffffffff16815260200191505060206040518083038186803b1580156114a257600080fd5b505afa1580156114b6573d6000803e3d6000fd5b505050506040513d60208110156114cc57600080fd5b810190808051906020019092919050505010156114e857600080fd5b670de0b6b3a764000060035486816114fc57fe5b04029050670de0b6b3a7640000818161151157fe5b0492508491508047101561152457600080fd5b600160009054906101000a900473ffffffffffffffffffffffffffffffffffffffff1673ffffffffffffffffffffffffffffffffffffffff166323b872dd3330886040518463ffffffff1660e01b8152600401808473ffffffffffffffffffffffffffffffffffffffff1681526020018373ffffffffffffffffffffffffffffffffffffffff1681526020018281526020019350505050602060405180830381600087803b1580156115d557600080fd5b505af11580156115e9573d6000803e3d6000fd5b505050506040513d60208110156115ff57600080fd5b8101908080519060200190929190505050503373ffffffffffffffffffffffffffffffffffffffff166108fc829081150290604051600060405180830381858888f19350505050158015611657573d6000803e3d6000fd5b507f697c42d55a5e1fed3f464ec6f38b32546a0bd368dc8068b065c67566d73f329033600160009054906101000a900473ffffffffffffffffffffffffffffffffffffffff1687600354604051808573ffffffffffffffffffffffffffffffffffffffff1681526020018473ffffffffffffffffffffffffffffffffffffffff16815260200183815260200182815260200194505050505060405180910390a16119cf565b84600260009054906101000a900473ffffffffffffffffffffffffffffffffffffffff1673ffffffffffffffffffffffffffffffffffffffff166370a08231336040518263ffffffff1660e01b8152600401808273ffffffffffffffffffffffffffffffffffffffff16815260200191505060206040518083038186803b15801561178657600080fd5b505afa15801561179a573d6000803e3d6000fd5b505050506040513d60208110156117b057600080fd5b810190808051906020019092919050505010156117cc57600080fd5b670de0b6b3a764000060045486816117e057fe5b04029050670de0b6b3a764000081816117f557fe5b049250849150600260009054906101000a900473ffffffffffffffffffffffffffffffffffffffff1673ffffffffffffffffffffffffffffffffffffffff166323b872dd3330886040518463ffffffff1660e01b8152600401808473ffffffffffffffffffffffffffffffffffffffff1681526020018373ffffffffffffffffffffffffffffffffffffffff1681526020018281526020019350505050602060405180830381600087803b1580156118ac57600080fd5b505af11580156118c0573d6000803e3d6000fd5b505050506040513d60208110156118d657600080fd5b8101908080519060200190929190505050503373ffffffffffffffffffffffffffffffffffffffff166108fc829081150290604051600060405180830381858888f1935050505015801561192e573d6000803e3d6000fd5b507f697c42d55a5e1fed3f464ec6f38b32546a0bd368dc8068b065c67566d73f329033600260009054906101000a900473ffffffffffffffffffffffffffffffffffffffff1687600454604051808573ffffffffffffffffffffffffffffffffffffffff1681526020018473ffffffffffffffffffffffffffffffffffffffff16815260200183815260200182815260200194505050505060405180910390a15b6008600081548092919060010191905055506040518060c0016040528060085481526020016040518060400160405280600381526020017f4554480000000000000000000000000000000000000000000000000000000000815250815260200184815260200185815260200183815260200142815250600560006008548152602001908152602001600020600082015181600001556020820151816001019080519060200190611a80929190611dcd565b50604082015181600201556060820151816003019080519060200190611aa7929190611dcd565b506080820151816004015560a082015181600501559050503360066000600854815260200190815260200160002060006101000a81548173ffffffffffffffffffffffffffffffffffffffff021916908373ffffffffffffffffffffffffffffffffffffffff1602179055505050505050565b60085481565b60076020528060005260406000206000915090505481565b600160009054906101000a900473ffffffffffffffffffffffffffffffffffffffff1681565b611c59816040516024018080602001828103825283818151815260200191508051906020019080838360005b83811015611ba5578082015181840152602081019050611b8a565b50505050905090810190601f168015611bd25780820380516001836020036101000a031916815260200191505b50925050506040516020818303038152906040527f41304fac000000000000000000000000000000000000000000000000000000007bffffffffffffffffffffffffffffffffffffffffffffffffffffffff19166020820180517bffffffffffffffffffffffffffffffffffffffffffffffffffffffff8381831617835250505050611da4565b50565b611d0881604051602401808273ffffffffffffffffffffffffffffffffffffffff1681526020019150506040516020818303038152906040527f2c2ecbc2000000000000000000000000000000000000000000000000000000007bffffffffffffffffffffffffffffffffffffffffffffffffffffffff19166020820180517bffffffffffffffffffffffffffffffffffffffffffffffffffffffff8381831617835250505050611da4565b50565b611da181604051602401808281526020019150506040516020818303038152906040527ff5b1bba9000000000000000000000000000000000000000000000000000000007bffffffffffffffffffffffffffffffffffffffffffffffffffffffff19166020820180517bffffffffffffffffffffffffffffffffffffffffffffffffffffffff8381831617835250505050611da4565b50565b60008151905060006a636f6e736f6c652e6c6f679050602083016000808483855afa5050505050565b828054600181600116156101000203166002900490600052602060002090601f016020900481019282601f10611e0e57805160ff1916838001178555611e3c565b82800160010185558215611e3c579182015b82811115611e3b578251825591602001919060010190611e20565b5b509050611e499190611e4d565b5090565b5b80821115611e66576000816000905550600101611e4e565b509056fea2646970667358221220b93cc4c81ebe5797695fdcf18729cac734f2f7dc0d6656143e74c3d1f162a2e564736f6c63430007030033",
  "linkReferences": {},
  "deployedLinkReferences": {}
}