{
  "_format": "hh-sol-artifact-1",
  "contractName": "Gouvernance",
  "sourceName": "contracts/Gouvernance.sol",
  "abi": [
    {
      "inputs": [
        {
          "internalType": "contract DexToken",
          "name": "_dexToken",
          "type": "address"
        }
      ],
      "stateMutability": "nonpayable",
      "type": "constructor"
    },
    {
      "anonymous": false,
      "inputs": [
        {
          "indexed": false,
          "internalType": "address",
          "name": "account",
          "type": "address"
        },
        {
          "indexed": false,
          "internalType": "string",
          "name": "description",
          "type": "string"
        },
        {
          "indexed": false,
          "internalType": "uint256",
          "name": "createAt",
          "type": "uint256"
        },
        {
          "indexed": false,
          "internalType": "uint256",
          "name": "finishAt",
          "type": "uint256"
        }
      ],
      "name": "ProposalCreated",
      "type": "event"
    },
    {
      "anonymous": false,
      "inputs": [
        {
          "indexed": false,
          "internalType": "address",
          "name": "account",
          "type": "address"
        },
        {
          "indexed": false,
          "internalType": "uint256",
          "name": "timestamp",
          "type": "uint256"
        },
        {
          "indexed": false,
          "internalType": "uint256",
          "name": "proposalId",
          "type": "uint256"
        },
        {
          "indexed": false,
          "internalType": "string",
          "name": "result",
          "type": "string"
        }
      ],
      "name": "VoteSent",
      "type": "event"
    },
    {
      "inputs": [
        {
          "internalType": "string",
          "name": "_description",
          "type": "string"
        },
        {
          "internalType": "uint256",
          "name": "_finishAt",
          "type": "uint256"
        }
      ],
      "name": "createProposal",
      "outputs": [],
      "stateMutability": "nonpayable",
      "type": "function"
    },
    {
      "inputs": [],
      "name": "dexToken",
      "outputs": [
        {
          "internalType": "contract DexToken",
          "name": "",
          "type": "address"
        }
      ],
      "stateMutability": "view",
      "type": "function"
    },
    {
      "inputs": [
        {
          "internalType": "uint256",
          "name": "",
          "type": "uint256"
        },
        {
          "internalType": "address",
          "name": "",
          "type": "address"
        }
      ],
      "name": "hasVotedForProposal",
      "outputs": [
        {
          "internalType": "bool",
          "name": "",
          "type": "bool"
        }
      ],
      "stateMutability": "view",
      "type": "function"
    },
    {
      "inputs": [],
      "name": "nbProposal",
      "outputs": [
        {
          "internalType": "uint256",
          "name": "",
          "type": "uint256"
        }
      ],
      "stateMutability": "view",
      "type": "function"
    },
    {
      "inputs": [],
      "name": "nbVote",
      "outputs": [
        {
          "internalType": "uint256",
          "name": "",
          "type": "uint256"
        }
      ],
      "stateMutability": "view",
      "type": "function"
    },
    {
      "inputs": [
        {
          "internalType": "uint256",
          "name": "",
          "type": "uint256"
        }
      ],
      "name": "proposalToAccount",
      "outputs": [
        {
          "internalType": "address",
          "name": "",
          "type": "address"
        }
      ],
      "stateMutability": "view",
      "type": "function"
    },
    {
      "inputs": [
        {
          "internalType": "uint256",
          "name": "",
          "type": "uint256"
        }
      ],
      "name": "proposals",
      "outputs": [
        {
          "internalType": "uint256",
          "name": "id",
          "type": "uint256"
        },
        {
          "internalType": "string",
          "name": "description",
          "type": "string"
        },
        {
          "internalType": "uint256",
          "name": "createAt",
          "type": "uint256"
        },
        {
          "internalType": "uint256",
          "name": "finishAt",
          "type": "uint256"
        },
        {
          "internalType": "uint256",
          "name": "yes",
          "type": "uint256"
        },
        {
          "internalType": "uint256",
          "name": "no",
          "type": "uint256"
        },
        {
          "internalType": "uint256",
          "name": "total",
          "type": "uint256"
        },
        {
          "internalType": "string",
          "name": "state",
          "type": "string"
        },
        {
          "internalType": "address",
          "name": "createdBy",
          "type": "address"
        }
      ],
      "stateMutability": "view",
      "type": "function"
    },
    {
      "inputs": [
        {
          "internalType": "uint256",
          "name": "_proposalId",
          "type": "uint256"
        },
        {
          "internalType": "uint256",
          "name": "_yes",
          "type": "uint256"
        },
        {
          "internalType": "uint256",
          "name": "_no",
          "type": "uint256"
        }
      ],
      "name": "voteForProposal",
      "outputs": [],
      "stateMutability": "nonpayable",
      "type": "function"
    },
    {
      "inputs": [
        {
          "internalType": "uint256",
          "name": "",
          "type": "uint256"
        }
      ],
      "name": "votes",
      "outputs": [
        {
          "internalType": "uint256",
          "name": "prposalId",
          "type": "uint256"
        },
        {
          "internalType": "string",
          "name": "result",
          "type": "string"
        },
        {
          "internalType": "uint256",
          "name": "timestamp",
          "type": "uint256"
        },
        {
          "internalType": "address",
          "name": "voter",
          "type": "address"
        }
      ],
      "stateMutability": "view",
      "type": "function"
    }
  ],
  "bytecode": "0x60806040526000600155600060025534801561001a57600080fd5b506040516113683803806113688339818101604052602081101561003d57600080fd5b8101908080519060200190929190505050806000806101000a81548173ffffffffffffffffffffffffffffffffffffffff021916908373ffffffffffffffffffffffffffffffffffffffff160217905550506112ca8061009e6000396000f3fe608060405234801561001057600080fd5b50600436106100935760003560e01c80635df81330116100665780635df813301461030957806362d4f893146103db57806372f24fc11461043f578063ec8032551461045d578063f52910cf1461049f57610093565b8063013cf08b1461009857806316cfc4c1146101f257806335facf7814610226578063536e6693146102eb575b600080fd5b6100c4600480360360208110156100ae57600080fd5b81019080803590602001909291905050506104f7565b604051808a815260200180602001898152602001888152602001878152602001868152602001858152602001806020018473ffffffffffffffffffffffffffffffffffffffff16815260200183810383528b818151815260200191508051906020019080838360005b8381101561014857808201518184015260208101905061012d565b50505050905090810190601f1680156101755780820380516001836020036101000a031916815260200191505b50838103825285818151815260200191508051906020019080838360005b838110156101ae578082015181840152602081019050610193565b50505050905090810190601f1680156101db5780820380516001836020036101000a031916815260200191505b509b50505050505050505050505060405180910390f35b6101fa610695565b604051808273ffffffffffffffffffffffffffffffffffffffff16815260200191505060405180910390f35b6102e96004803603604081101561023c57600080fd5b810190808035906020019064010000000081111561025957600080fd5b82018360208201111561026b57600080fd5b8035906020019184600183028401116401000000008311171561028d57600080fd5b91908080601f016020809104026020016040519081016040528093929190818152602001838380828437600081840152601f19601f820116905080830192505050505050509192919290803590602001909291905050506106b9565b005b6102f3610a8c565b6040518082815260200191505060405180910390f35b6103356004803603602081101561031f57600080fd5b8101908080359060200190929190505050610a92565b60405180858152602001806020018481526020018373ffffffffffffffffffffffffffffffffffffffff168152602001828103825285818151815260200191508051906020019080838360005b8381101561039d578082015181840152602081019050610382565b50505050905090810190601f1680156103ca5780820380516001836020036101000a031916815260200191505b509550505050505060405180910390f35b610427600480360360408110156103f157600080fd5b8101908080359060200190929190803573ffffffffffffffffffffffffffffffffffffffff169060200190929190505050610b7a565b60405180821515815260200191505060405180910390f35b610447610ba9565b6040518082815260200191505060405180910390f35b61049d6004803603606081101561047357600080fd5b81019080803590602001909291908035906020019092919080359060200190929190505050610baf565b005b6104cb600480360360208110156104b557600080fd5b81019080803590602001909291905050506111c4565b604051808273ffffffffffffffffffffffffffffffffffffffff16815260200191505060405180910390f35b6003602052806000526040600020600091509050806000015490806001018054600181600116156101000203166002900480601f0160208091040260200160405190810160405280929190818152602001828054600181600116156101000203166002900480156105a95780601f1061057e576101008083540402835291602001916105a9565b820191906000526020600020905b81548152906001019060200180831161058c57829003601f168201915b505050505090806002015490806003015490806004015490806005015490806006015490806007018054600181600116156101000203166002900480601f0160208091040260200160405190810160405280929190818152602001828054600181600116156101000203166002900480156106655780601f1061063a57610100808354040283529160200191610665565b820191906000526020600020905b81548152906001019060200180831161064857829003601f168201915b5050505050908060080160009054906101000a900473ffffffffffffffffffffffffffffffffffffffff16905089565b60008054906101000a900473ffffffffffffffffffffffffffffffffffffffff1681565b61271060008054906101000a900473ffffffffffffffffffffffffffffffffffffffff1673ffffffffffffffffffffffffffffffffffffffff166370a08231336040518263ffffffff1660e01b8152600401808273ffffffffffffffffffffffffffffffffffffffff16815260200191505060206040518083038186803b15801561074357600080fd5b505afa158015610757573d6000803e3d6000fd5b505050506040513d602081101561076d57600080fd5b810190808051906020019092919050505010156107f2576040517f08c379a00000000000000000000000000000000000000000000000000000000081526004018080602001828103825260208152602001807f596f75206d7573742068617665206174206c656173742031303030302044455881525060200191505060405180910390fd5b60016000815480929190600101919050555060405180610120016040528060015481526020018381526020014281526020018281526020016000815260200160008152602001600081526020016040518060400160405280600b81526020017f496e2050726f677265737300000000000000000000000000000000000000000081525081526020013373ffffffffffffffffffffffffffffffffffffffff168152506003600060015481526020019081526020016000206000820151816000015560208201518160010190805190602001906108cf9291906111f7565b5060408201518160020155606082015181600301556080820151816004015560a0820151816005015560c0820151816006015560e082015181600701908051906020019061091e9291906111f7565b506101008201518160080160006101000a81548173ffffffffffffffffffffffffffffffffffffffff021916908373ffffffffffffffffffffffffffffffffffffffff1602179055509050503360046000600154815260200190815260200160002060006101000a81548173ffffffffffffffffffffffffffffffffffffffff021916908373ffffffffffffffffffffffffffffffffffffffff1602179055507fe7890a17099f7377119f9bcc610136034f38d99a26a59ec393bd3f871d244c1f33834284604051808573ffffffffffffffffffffffffffffffffffffffff16815260200180602001848152602001838152602001828103825285818151815260200191508051906020019080838360005b83811015610a4b578082015181840152602081019050610a30565b50505050905090810190601f168015610a785780820380516001836020036101000a031916815260200191505b509550505050505060405180910390a15050565b60015481565b6006602052806000526040600020600091509050806000015490806001018054600181600116156101000203166002900480601f016020809104026020016040519081016040528092919081815260200182805460018160011615610100020316600290048015610b445780601f10610b1957610100808354040283529160200191610b44565b820191906000526020600020905b815481529060010190602001808311610b2757829003601f168201915b5050505050908060020154908060030160009054906101000a900473ffffffffffffffffffffffffffffffffffffffff16905084565b60056020528160005260406000206020528060005260406000206000915091509054906101000a900460ff1681565b60025481565b600015156005600085815260200190815260200160002060003373ffffffffffffffffffffffffffffffffffffffff1673ffffffffffffffffffffffffffffffffffffffff16815260200190815260200160002060009054906101000a900460ff16151514610c86576040517f08c379a000000000000000000000000000000000000000000000000000000000815260040180806020018281038252601e8152602001807f616c726561647920766f746520666f7220746869732070726f706f73616c000081525060200191505060405180910390fd5b42600360008581526020019081526020016000206003015411610d11576040517f08c379a00000000000000000000000000000000000000000000000000000000081526004018080602001828103825260168152602001807f766f74696e6720706572696f642066696e69736865640000000000000000000081525060200191505060405180910390fd5b8160036000858152602001908152602001600020600401540160036000858152602001908152602001600020600401819055508060036000858152602001908152602001600020600501540160036000858152602001908152602001600020600501819055506003600084815260200190815260200160002060040154600360008581526020019081526020016000206005015401600360008581526020019081526020016000206006018190555060026000815480929190600101919050555060008214610f715760405180608001604052808481526020016040518060400160405280600381526020017f796573000000000000000000000000000000000000000000000000000000000081525081526020014281526020013373ffffffffffffffffffffffffffffffffffffffff16815250600660006002548152602001908152602001600020600082015181600001556020820151816001019080519060200190610e819291906111f7565b506040820151816002015560608201518160030160006101000a81548173ffffffffffffffffffffffffffffffffffffffff021916908373ffffffffffffffffffffffffffffffffffffffff1602179055509050507f9b42849fdd36a1cd3e24f1038e39e41e2a3dab48d7fbfcf0179b47e4dfece2b6334285604051808473ffffffffffffffffffffffffffffffffffffffff16815260200183815260200182815260200180602001828103825260038152602001807f796573000000000000000000000000000000000000000000000000000000000081525060200194505050505060405180910390a1611104565b60405180608001604052808481526020016040518060400160405280600281526020017f6e6f00000000000000000000000000000000000000000000000000000000000081525081526020014281526020013373ffffffffffffffffffffffffffffffffffffffff168152506006600060025481526020019081526020016000206000820151816000015560208201518160010190805190602001906110189291906111f7565b506040820151816002015560608201518160030160006101000a81548173ffffffffffffffffffffffffffffffffffffffff021916908373ffffffffffffffffffffffffffffffffffffffff1602179055509050507f9b42849fdd36a1cd3e24f1038e39e41e2a3dab48d7fbfcf0179b47e4dfece2b6334285604051808473ffffffffffffffffffffffffffffffffffffffff16815260200183815260200182815260200180602001828103825260028152602001807f6e6f00000000000000000000000000000000000000000000000000000000000081525060200194505050505060405180910390a15b60016005600085815260200190815260200160002060003373ffffffffffffffffffffffffffffffffffffffff1673ffffffffffffffffffffffffffffffffffffffff16815260200190815260200160002060006101000a81548160ff021916908315150217905550336004600085815260200190815260200160002060006101000a81548173ffffffffffffffffffffffffffffffffffffffff021916908373ffffffffffffffffffffffffffffffffffffffff160217905550505050565b60046020528060005260406000206000915054906101000a900473ffffffffffffffffffffffffffffffffffffffff1681565b828054600181600116156101000203166002900490600052602060002090601f016020900481019282601f1061123857805160ff1916838001178555611266565b82800160010185558215611266579182015b8281111561126557825182559160200191906001019061124a565b5b5090506112739190611277565b5090565b5b80821115611290576000816000905550600101611278565b509056fea26469706673582212209448e8ebef9d5666be2a88c6aad2bb23f5b23389a48bea9c322ccd1ba025d1d364736f6c63430007030033",
  "linkReferences": {},
  "deployedLinkReferences": {}
}